:020000040800F2
:10000000304400200101000859060008F3040008EC
:1000100055060008F5010008C7110008000000009F
:100020000000000000000000000000004D09000872
:10003000F90100080000000085070008750B0008A2
:100040001B0100081B0100081B0100081B01000820
:100050001B0100081B0100081B0100081B01000810
:100060001B0100081B0100081B0100081B01000800
:100070001B0100081B0100081B0100081B010008F0
:100080001B0100081B0100081B0100081B010008E0
:100090001B0100081B0100081B0100081B010008D0
:1000A0001B0100081B0100081B0100081B010008C0
:1000B0001B0100081B0100081B0100081B010008B0
:1000C0001B0100081B0100081B0100081B010008A0
:1000D0001B0100081B0100081B010008410F00085C
:1000E000FD0100081B0100081B010008DFF80CD00F
:1000F00000F02AF80048004785130008304400202B
:100100000648804706480047FEE7FEE7FEE7FEE7B1
:10011000FEE7FEE7FEE7FEE7FEE7FEE7790B0008F5
:10012000ED000008D2B201E000F8012B491EFBD21D
:1001300070470022F6E710B513460A4604461946F2
:10014000FFF7F0FF204610BD064C074D06E0E068C3
:1001500040F0010394E8070098471034AC42F6D30E
:10016000FFF7C8FFE8140008081500081FB50121B3
:10017000042000F029FB0121084600F025FB0121A5
:100180001A4800F061F948208DF80F004FF4004044
:10019000ADF80C0003208DF80E0003A9144800F000
:1001A000C7F80F21002000F0A3F84FF400400190A1
:1001B00001208DF80A0000208DF808000C208DF831
:1001C000090001A800F04AF84FF4A06000F07EFAA0
:1001D00028208DF8000001208DF803008DF8010023
:1001E0008DF80200684600F039FA1FBD00023000A9
:1001F0000008014000BFFEE77047000010B54FF453
:10020000004000F017F801280AD1C103054800F0AA
:1002100063F908B900F0E8FF4FF4004000F004F87B
:1002200010BD00000008014001490860704700004F
:1002300014040140014600200022074B1B6803EA1A
:100240000102054B14331B680B4013B10AB10120A6
:1002500000E0002070470000000401400021234915
:100260008279002A3AD00A46126803689A430B46FC
:100270001A600A1D126803689A430B1D1A600279FE
:1002800011440A6803681A430A60184A083212685F
:1002900003689A43154B08331A601A1D12680368E5
:1002A0009A43124B0C331A604279102A0ED11A1F4E
:1002B000126803681A430D4B08331A601A1D12683E
:1002C00003681A43094B0C331A600DE00749427961
:1002D00011440A6803681A430A6005E00279114470
:1002E0000A6803689A430A607047000000040140EE
:1002F00030B500228B071C0F0F2303FA04F20B4BBF
:100300008C1053F824309343084C8D1044F825305A
:1003100023468C1053F824308C07240F00FA04F481
:100320002343024C8D1044F8253030BD08000140B5
:100330002DE9F0410246002500260020002300247C
:10034000002791F803C00CF00F0591F803C00CF0E2
:10035000100CBCF1000F03D091F802C04CEA050567
:1003600091F800C0BCF1000F31D0146800202BE0E0
:100370004FF0010C0CFA00F3B1F800C00CEA0306D0
:100380009E4220D183004FF00F0C0CFA03F7BC43C0
:1003900005FA03FC4CEA040491F803C0BCF1280FF1
:1003A00006D14FF0010C0CFA00FCC2F814C00AE0B0
:1003B00091F803C0BCF1480F05D14FF0010C0CFAC5
:1003C00000FCC2F810C0401C0828D1D31460B1F85A
:1003D00000C0BCF1FF0F34DD546800202EE000F1B6
:1003E000080C4FF0010808FA0CF3B1F800C00CEA51
:1003F00003069E4221D183004FF00F0C0CFA03F745
:10040000BC4305FA03FC4CEA040491F803C0BCF1B8
:10041000280F05D100F1080C08FA0CF8C2F8148076
:1004200091F803C0BCF1480F07D100F1080C4FF060
:10043000010808FA0CF8C2F81080401C0828CED336
:100440005460BDE8F0810000F0B50A4600230024A6
:100450000021002500F00046B6F1004F02D11D4EEC
:10046000F16901E01B4E7168C0F3034583B200F4EB
:100470004016B6F5401F08D121F07061154E766820
:1004800026F07066134F7E6012E000F48016B6F519
:10049000801F06D1032606FA05F4A14341F07061DE
:1004A00006E0460D360103FA06F6B14341F07061ED
:1004B00022B1460D360103FA06F6314300F000463C
:1004C000B6F1004F02D1034EF16101E0014E7160BF
:1004D000F0BD0000000001400246002093680B4080
:1004E0000BB1012000E000207047416170470161BD
:1004F000704700BFFEE7000000B587B0012108206B
:1005000000F062F90121880300F03EF94FF4005039
:10051000ADF8180003208DF81A0018208DF81B0084
:1005200006A94848FFF704FF4FF48040ADF81800D3
:1005300004208DF81B0006A94248FFF7F9FE0121AF
:10054000092000F041F901213F48FFF77DFF082015
:10055000ADF8180010208DF81B0003208DF81A004C
:1005600006A93848FFF7E4FE4FF48270ADF80600A4
:100570000020ADF804004FF40060ADF80800002042
:10058000ADF812000220ADF80A000020ADF80C0012
:100590004FF40070ADF80E000020ADF810000720F9
:1005A000ADF8140001A9294800F0B2F9012127484B
:1005B00000F094F901210C2000F006F92020ADF89C
:1005C000180003208DF81A0010208DF81B0006A9D2
:1005D0001C48FFF7ADFE0120ADF8180003208DF890
:1005E0001A0010208DF81B0006A91948FFF7A0FE7D
:1005F0000220ADF8180003208DF81A0010208DF8A5
:100600001B0006A91248FFF793FE0420ADF818005E
:1006100003208DF81A0010208DF81B0006A90C4845
:10062000FFF786FE4FF48070ADF8180003208DF8B8
:100630001A0010208DF81B0006A90248FFF778FE6B
:1006400007B000BD000C014000023000003800403F
:100650000008014000BFFEE77047000070B50021B0
:1006600000230F22C47804B3154C246804F4E0641A
:10067000C4F5E064210AC1F10403CA40447804FAD5
:1006800003F184781440214309010E4C0678A155EA
:10069000047804F01F050124AC4005786D11AD000D
:1006A00005F1E025C5F8004109E0047804F01F05D4
:1006B0000124AC40044D0678761145F8264070BD03
:1006C0000CED00E000E400E080E100E002490143BD
:1006D000024A1160704700000000FA050CED00E0CE
:1006E00008B50121082000F06FF80121042000F076
:1006F0004BF84020ADF8000018208DF803000320CF
:100700008DF8020069460248FFF712FE08BD00009E
:10071000000C014030B587B005460C46184800F083
:1007200073FA681E80B2ADF814004720ADF81000CF
:100730000020ADF81600ADF8120004A9104800F032
:10074000ADFB6020ADF800000120ADF80200601E96
:1007500080B2ADF806000020ADF8080069460848F0
:1007600000F046FB0821064800F08EFB01210448FA
:1007700000F032FA0121024800F03AFA07B030BD29
:10078000000800407047000029B1064AD2690243C0
:10079000044BDA6104E0034AD2698243014BDA6117
:1007A000704700000010024029B1064A1269024356
:1007B000044B1A6104E0034A12698243014B1A6137
:1007C000704700000010024029B1064A92690243B6
:1007D000044B9A6104E0034A92698243014B9A6197
:1007E000704700000010024029B1064AD268024357
:1007F000044BDA6004E0034AD2688243014BDA60BA
:10080000704700000010024030B500210022002493
:1008100000232D4D6D6805F00C0121B1042905D090
:10082000082923D105E0294D056022E0274D056008
:100830001FE0254D6D6805F47012234D6D6805F4B9
:100840008034022505EB92421CB9214D55430560C9
:100850000BE01D4D6D6805F400351DB11C4D554371
:10086000056002E0194D5543056002E0174D056033
:1008700000BF00BF144D6D6805F0F0010909154D6A
:100880006B5C0568DD4045600F4D6D6805F4E06107
:10089000090A104D6B5C4568DD4085600A4D6D6846
:1008A00005F46051C90A0B4D6B5C4568DD40C560BD
:1008B000054D6D6805F44041890B074D6B5CC568BB
:1008C000B5FBF3F5056130BD0010024000127A005F
:1008D00000093D00000000201000002021B1028826
:1008E00042F04002028004E002884FF6BF731A40D3
:1008F000028070470246002013890B400BB1012093
:1009000000E0002070470146888970478181704768
:1009100010B50022028802F441520B884C88234310
:100920008C882343CC8823430C8923434C8923435D
:100930008C892343CC8923431A430280838B4FF253
:10094000FF74234083830B8A038210BD704700002D
:1009500005480078012804D10020034908700120CF
:1009600070470020FCE700001500002000B587B0AC
:1009700001218804FFF708FF01210820FFF724FF69
:1009800018208DF81B004FF48060ADF8180003208C
:100990008DF81A0006A92248FFF7CAFC48208DF8F6
:1009A0001B004FF40060ADF8180003208DF81A000A
:1009B00006A91B48FFF7BCFC4FF4E1300290002071
:1009C000ADF814000C20ADF812000020ADF81000B6
:1009D000ADF80E00ADF80C0002A9124800F07EFB45
:1009E000012240F225510F4800F052FB4FF4A06065
:1009F000FFF76CFE27208DF8040001208DF807001A
:100A000000208DF8050001208DF8060001A8FFF7F1
:100A100025FE0121034800F0F8FA07B000BD0000F0
:100A2000000C01400048004070B505460E46002409
:100A300004E0285D00F006F8601C84B2B442F8DBE4
:100A400070BD000010B504462146054800F0B7FB14
:100A500000BF8021024800F0E4FA0028F9D010BD60
:100A60000048004070B50446250AE6B2FA2006495F
:100A70000870084645708670FB20C8700421024843
:100A8000FFF7D2FF70BD00001D00002010B500F080
:100A900001F810BD0CB500200190009033480068AB
:100AA00040F480303149086000BF3048006800F4ED
:100AB000003000900198401C0190009818B90198EE
:100AC000B0F5A06FF1D12948006800F4003010B1F2
:100AD0000120009001E0002000900098012843D1FF
:100AE0002348006840F0100021490860084600686B
:100AF00020F0030008600846006840F0020008602B
:100B00001A484068194948600846406848600846E5
:100B1000406840F4806048600846406820F47C10DB
:100B200048600846406840F4E8104860084600689D
:100B300040F08070086000BF0C48006800F0007052
:100B40000028F9D00948406820F0030007494860B0
:100B50000846406840F00200486000BF0348406813
:100B600000F00C000828F9D10CBD00000010024074
:100B7000002002407047000010B51348006840F0A4
:100B800001001149086008464068104908400E49B4
:100B90004860084600680E4908400B49086008464E
:100BA000006820F4802008600846406820F4FE00B9
:100BB00048604FF41F008860FFF768FF4FF0006047
:100BC0000449086010BD0000001002400000FFF85A
:100BD000FFFFF6FE08ED00E021B1028842F080023E
:100BE000028004E002884FF67F731A40028070474B
:100BF00021B1028842F00102028004E002884FF62F
:100C0000FE731A400280704710B50446684884425B
:100C100008D10121C014FFF7E7FD0021E014FFF720
:100C2000E3FDC4E0B4F1804F08D101210846FFF78D
:100C3000BBFD00210120FFF7B7FDB8E05D4884420D
:100C400008D101210220FFF7AFFD00210220FFF7AC
:100C5000ABFDACE05848844208D101210420FFF7E5
:100C6000A3FD00210420FFF79FFDA0E0534884422C
:100C700008D101210820FFF797FD00210820FFF788
:100C800093FD94E04E48844208D101211020FFF7E3
:100C90008BFD00211020FFF787FD88E04948844242
:100CA00008D101212020FFF77FFD00212020FFF740
:100CB0007BFD7CE04448844208D101214014FFF7C9
:100CC00093FD00216014FFF78FFD70E03F488442E0
:100CD00009D10121C804FFF787FD00214FF400204E
:100CE000FFF782FD63E03A48844209D101210805FB
:100CF000FFF77AFD00214FF48010FFF775FD56E0F5
:100D00003448844209D101214805FFF76DFD0021D7
:100D10004FF40010FFF768FD49E02F48844208D1E6
:100D200001214020FFF740FD00214020FFF73CFD5E
:100D30003DE02A48844208D101218020FFF734FD9C
:100D400000218020FFF730FD31E02548844208D1A2
:100D500001218015FFF728FD0021A015FFF724FDD4
:100D600025E02048844209D101210804FFF73CFD19
:100D700000214FF48030FFF737FD18E01A48844215
:100D800009D101214804FFF72FFD00214FF4003065
:100D9000FFF72AFD0BE01548844208D101218804A1
:100DA000FFF722FD00214FF48020FFF71DFD10BD4D
:100DB000002C01400004004000080040000C0040EE
:100DC000001000400014004000340140004C01407D
:100DD000005001400054014000180040001C004039
:100DE0000020004000400140004401400048014014
:100DF00070B5002400220023058C4FF6FE763540A6
:100E00000584028C8388048B4FF68F752C40B51EA9
:100E10002C400D882C43751E2A400D892A434D888D
:100E20002A43144DA8420BD0134DA84208D0134DAD
:100E3000A84205D0124DA84202D0124DA84213D1AB
:100E40004FF6F7752A404D892A434FF6FB752A4025
:100E50008D882A434FF6FF652B404FF6FF552B40F8
:100E60008D892B43CD892B4383800483CD88858650
:100E7000028470BD002C014000340140004001405C
:100E800000440140004801400A460021018B4FF612
:100E9000F773194011430183704700000022028854
:100EA0001D4B98420ED01D4B98420BD0B0F1804F95
:100EB00008D01B4B984205D01A4B984202D01A4BCF
:100EC000984204D14FF68F731A404B881A43174B40
:100ED000984207D0164B984204D04FF6FF431A4071
:100EE000CB881A4302808B8883850B8803850A4B45
:100EF00098420BD0094B984208D00E4B984205D02F
:100F00000D4B984202D00D4B984201D10B7A0386CB
:100F10000123838270470000002C0140003401400F
:100F20000004004000080040000C00400010004099
:100F300000140040004001400044014000480140CE
:100F400010B540F22551244800F078F8012842D12C
:100F5000214800F02FF9C4B22048007880B9FA2C5B
:100F600033D101201D49087000201D4908701D481B
:100F7000097844541A480078401C1949087024E044
:100F800016480078012810D11648154909784454AC
:100F900013480078401C124908700846007806285B
:100FA00013D102200D4908700FE00C480078022888
:100FB0000BD1FB2C09D10B48094909784454002076
:100FC0000649087001200849087040F2255102487E
:100FD00000F00CF800BF10BD0048004021000020C8
:100FE00022000020160000201500002010B500226D
:100FF000002340F66A14A14200D100BF0A12012466
:101000009440A3B2DC43048010BD21B1828942F434
:101010000052828104E082894DF6FF731A4082817A
:10102000704702460020B1F5007F00D100BF138851
:101030000B400BB1012000E00020704770B5024664
:10104000002400230025002040F66A16B14200D19A
:1010500000BFC1F3421501F01F03012606FA03F396
:10106000012D02D19689334006E0022D02D1168A65
:10107000334001E0968A33400C12012606FA04F44C
:101080001688344013B10CB1012000E0002070BD7F
:10109000F0B50346002400260025002040F66A171C
:1010A000B94200D100BF1846C1F3421401F01F0637
:1010B000012707FA06F5012C01D10C3004E0022CBF
:1010C00001D1103000E014301AB107682F430760D7
:1010D00002E00768AF430760F0BD00002DE9F0476C
:1010E00086B005460E460024A24600BFA146002752
:1010F000B08900B100BF2F462C8A4CF6FF70044027
:10110000F08804432C82AC894EF6F3100440B0887A
:1011100031890843718908430443AC81AC8A4FF696
:10112000FF400440B0890443AC8201A8FFF76CFB88
:101130001F48874202D1DDF810A001E0DDF80CA0C5
:10114000A88900F4004040B10AEBCA0000EB0A1085
:1011500031684900B0FBF1F807E00AEBCA0000EB88
:101160000A1031688900B0FBF1F86420B8FBF0F098
:1011700004012009642101FB1089A88900F40040C2
:1011800040B1322000EBC900B0FBF1F000F00700E5
:10119000044308E0322000EB09106421B0FBF1F0B9
:1011A00000F00F0004432C8106B0BDE8F08700007A
:1011B0000038014001468888C0F308007047C1F339
:1011C00008028280704700BFFEE702E008C8121FD5
:1011D00008C1002AFAD170477047002001E001C120
:1011E000121F002AFBD1704710B508201349086070
:1011F00000241BE000F05AF91149124A128821F824
:10120000120010480088401C0E49088008460088DB
:101210000D490988884207D100F092F80020094959
:101220000880012009490870601CC4B2022CE1DB6F
:1012300008200249091F086010BD0000140C01407D
:101240002C0000202A00002028000020240000207C
:10125000202005490860091F0860086008600860D0
:10126000091D086070470000140C0140072840D297
:10127000DFE800F03F040D17202A35000421224A40
:101280001160022111600121121F116039E0042157
:101290001D4A11600221121F11600121121D1160EF
:1012A0002FE00421184A11600221121F1160012150
:1012B000116026E00421144A121F11600221121D40
:1012C0001160012111601CE004210F4A121F1160FE
:1012D0000221121D11600121121F116011E0042171
:1012E000094A121F1160022111600121121D1160B3
:1012F00007E00421044A11600221116001211160FC
:1013000000BF00BF704700001408014010B504463C
:10131000FFF79EFF4FF48070084908604020091FC6
:1013200008600020FFF7A2FFFEF720FFFFF7D8F9C3
:10133000621E91B2A0B2FFF7EDF910BD140C01408E
:1013400008B500210D48FFF753FC01210820FFF7E5
:101350003BFA10208DF803004020ADF80000032078
:101360008DF8020069460648FEF7E2FF08200449AE
:10137000103108604020086008BD000000080040EF
:10138000000C014008B501211020FFF71DFA1020C4
:101390008DF803004002ADF8000003208DF8020034
:1013A00069463A48FEF7C4FF4FF400513748FFF74B
:1013B0009CF8FFF7DBFAFFF79FF8002564E0FFF7E2
:1013C000C7FA012844D141033048FFF790F830486C
:1013D0000078FA283CD12E488079FB2838D12C4857
:1013E0004078AA2823D12A48C0782949897840EA38
:1013F0000124284890FBF4F02749088024484079CC
:101400002349097940EA01204004000C234908805F
:1014100001250020224908702249088069032248DA
:10142000FEF787FE1C480088FFF770FF10E01848A1
:101430004078BB280CD10025FFF782FF4FF4005104
:101440001248FFF754F84FF400511048FFF74DF8D9
:10145000D5B113480078B8B1002405E0124931F83D
:101460001400FFF7FFFA641C0C4800888442F5DB87
:101470000A4801880C48FEF75CFE00200849087005
:1014800005480088FFF742FF99E70000001001407F
:101490001600002040420F002600002028000020F7
:1014A000240000202A0000202C00002010B5002479
:1014B00000BF02210B48FFF71DFA0028F9D04FF6B4
:1014C000FF710848FFF722FA00BF01210548FFF726
:1014D00011FA0028F9D00348FFF715FA0446204610
:1014E00010BD000000380040081500080000002072
:1014F0002C000000CA110008341500082C00002040
:1015000004440000DA110008000000000102030496
:10151000010203040607080902040608000000008F
:1015200000000000000000000000000000000000BB
:0415300000000000B7
:04000005080000ED02
:00000001FF
